:100000000C945D000C9485000C9485000C94850084
:100010000C9485000C9485000C9485000C9485004C
:100020000C9485000C9485000C9485000C9485003C
:100030000C9485000C9485000C9485000C9485002C
:100040000C94CD030C9485000C9485000C948500D1
:100050000C9485000C9485000C9485000C9485000C
:100060000C9485000C94850000000008000201003B
:100070000003040700000000000000000000000072
:10008000250028002B0000000000240027002A0083
:10009000040404040404040402020202020203032E
:1000A0000303030301020408102040800102040836
:1000B0001020010204081020B20411241FBECFEF4B
:1000C000D8E0DEBFCDBF11E0A0E0B1E0ECE6FEE09D
:1000D00002C005900D92A232B107D9F721E0A2E249
:1000E000B1E001C01D92AF34B207E1F710E0CDE5F9
:1000F000D0E004C02197FE010E94F204CC35D10764
:10010000C9F70E9417040C9434070C94000090E087
:10011000FC01EC55FF4F249180579F4FFC018491C7
:10012000882399F090E0880F991FFC01EA57FF4F50
:10013000A591B491FC01E458FF4F859194918FB73C
:10014000F894EC91E22BEC938FBF089590E0FC01C2
:10015000E859FF4F2491FC01EC55FF4F3491FC010D
:10016000E057FF4FE491EE23C9F0222339F023300A
:1001700001F1A8F4213019F1223029F1F0E0EE0F5D
:10018000FF1FE458FF4FA591B4918FB7F894EC91FD
:10019000611126C030953E233C938FBF08952730D0
:1001A000A9F02830C9F0243049F7809180008F7D74
:1001B00003C0809180008F7780938000DFCF84B56B
:1001C0008F7784BDDBCF84B58F7DFBCF8091B0006E
:1001D0008F778093B000D2CF8091B0008F7DF9CF20
:1001E0003E2BDACFAF92BF92CF92DF92EF92FF9287
:1001F0000F931F93CF93DF936C017B018B01040F4F
:10020000151FEB015E01AE18BF08C017D10759F0EA
:100210006991D601ED91FC910190F081E02DC6012C
:100220000995892B79F7C501DF91CF911F910F9126
:10023000FF90EF90DF90CF90BF90AF90089508951A
:1002400090E080E00895FC0101900020E9F73197EB
:10025000AF01481B590BBC0187E391E00C94F200FD
:100260008F929F92AF92BF920F931F93CF93DF9382
:10027000CDB7DEB7A1970FB6F894DEBF0FBECDBFE6
:1002800019A2423008F44AE08E010F5D1F4F842E00
:10029000912CB12CA12CA50194010E94D004E62F31
:1002A000B901CA01EA30F4F4E05DD801EE938D01A2
:1002B000232B242B252B79F790E080E0109719F061
:1002C000CD010E942301A1960FB6F894DEBF0FBEA8
:1002D000CDBFDF91CF911F910F91BF90AF909F90B5
:1002E0008F900895E95CE1CFCF93DF93EC0160E05C
:1002F0008E810E94A60061E08E810E94A60060E0CF
:100300008E810E94A6008BE891E00197F1F7DF91C2
:10031000CF910895CF92DF92EF92FF920F931F93A8
:10032000CF93DF936C017C0187E0E80EF11CD0E0F5
:10033000C0E0062F10E0B8010C2E02C0759567953D
:100340000A94E2F76170F70181917F010E94A60093
:100350002196C430D10579F7C601DF91CF911F9165
:100360000F91FF90EF90DF90CF900C947401CF929B
:10037000DF92EF92FF920F931F93CF93DF93EC01E5
:10038000F62E642F8C810E94A6008D818F3F19F07C
:1003900060E00E94A6000F2D10E08F8584FF25C02D
:1003A0006E0187E0C80ED11CF12CE12CB8010E2C97
:1003B00002C0759567950A94E2F76170F601819124
:1003C0006F010E94A600FFEFEF1AFF0A88E0E8160F
:1003D000F10461F7CE01DF91CF911F910F91FF9052
:1003E000EF90DF90CF900C947401B80184E0759584
:1003F00067958A95E1F7CE010E948A016F2DCE01A3
:10040000DF91CF911F910F91FF90EF90DF90CF90F0
:100410000C948A0140E0682F87E391E00C94B701C7
:1004200081E00E940A028BE39FE10197F1F70895B2
:10043000CF93DF93823029F4909146019860909396
:10044000460180934A0110924B0180E480934C0155
:1004500080E180934D0180E580934E0180913B01C6
:100460000E94870080913C018F3F11F00E9487001D
:1004700080913D010E948700C7E3D1E09E01275390
:1004800031408091460184FD0AC084E090E02196CD
:10049000281739073CF48E810E948700EFCF88E04F
:1004A00090E0F5CF8BE39DE00197F1F760E080915C
:1004B0003B010E94A60060E080913D010E94A600E1
:1004C00080913C018F3F19F060E00E94A60080916E
:1004D000460184FD34C063E087E391E00E948A0115
:1004E000CBE4D6E4CE010197F1F763E087E391E036
:1004F0000E948A012197F1F763E087E391E00E946F
:100500008A0183E592E00197F1F762E087E391E0E9
:100510000E948A018091460180620E940A0284E062
:10052000809347018CE00E940A020E94100282E040
:100530008093480186E0DF91CF910C940A0280629B
:100540000E940A028BE496E40197F1F7809146013C
:1005500080620E940A0283E592E00197F1F78091A0
:10056000460180620E940A02D5CF41E00E94B70195
:1005700081E090E008954F925F926F927F928F9208
:100580009F92AF92BF92CF92DF92EF92FF920F9322
:100590001F93CF936B017C01742EAC019B010E94D1
:1005A0002F07882399F08DE091E0CF911F910F9153
:1005B000FF90EF90DF90CF90BF90AF909F908F9083
:1005C0007F906F905F904F900C94230146015701EC
:1005D000E894B7F82FEF3FEF4FE75FE7C501B401AD
:1005E0000E942F0781110DC02FEF3FEF4FE75FE70C
:1005F000C501B4010E94650518161CF481E191E063
:10060000D4CF2FEF3FEF4FE75FE4C701B6010E9461
:10061000BD0618161CF485E191E0C7CF2FEF3FEF20
:100620004FE75FECC701B6010E94650587FDF3CF78
:1006300020E030E0A901C701B6010E94650510E085
:1006400000E087FF0CC041E06DE287E391E00E948B
:10065000B701F7FAF094F7F8F09401E010E0C0E089
:1006600060E070E080E09FE37C1641F020E030E045
:1006700040E251E40E946A05CF5FF6CFA7019601E0
:100680000E94F9044B015C010E94DC052B013C0136
:100690004AE00E943001080F191FCC23C9F1C301A1
:1006A000B2010E940B069B01AC01C501B4010E947E
:1006B000F8044B015C0141E06EE287E391E00E94A7
:1006C000B7010F5F1F4FC15018F120E030E040E24A
:1006D00051E4C501B4010E94C2062B013C010E94F5
:1006E000DC054B01B12CA12C4AE0C501B4010E94EC
:1006F0003001080F191FC501B4010E940B069B01B0
:10070000AC01C301B2010E94F8044B015C01DBCFD4
:10071000C801CF911F910F91FF90EF90DF90CF9084
:10072000BF90AF909F908F907F906F905F904F9011
:100730000895CF93C82F0E941002E1E080914A01F2
:100740008111E0E0E195F0E0E95CFE4F848980688A
:100750000E940A0289E191E00E9423016091260132
:1007600070912701809128019091290142E00E9417
:10077000BB0280E291E00E942301CC2361F06091F2
:10078000220170912301809124019091250142E082
:10079000CF910C94BB02CF9108951F920F920FB688
:1007A0000F9211242F933F938F939F93AF93BF93F7
:1007B0008091330190913401A0913501B0913601BF
:1007C0003091320123E0230F2D3758F50196A11DFA
:1007D000B11D209332018093330190933401A09393
:1007E0003501B093360180912E0190912F01A09197
:1007F0003001B09131010196A11DB11D80932E01F0
:1008000090932F01A0933001B0933101BF91AF912C
:100810009F918F913F912F910F900FBE0F901F903E
:10082000189526E8230F0296A11DB11DD2CF78940A
:1008300084B5826084BD84B5816084BD85B58260E5
:1008400085BD85B5816085BD80916E008160809396
:100850006E001092810080918100826080938100FF
:10086000809181008160809381008091800081600F
:10087000809380008091B10084608093B10080916A
:10088000B00081608093B00080917A008460809392
:100890007A0080917A00826080937A0080917A0059
:1008A000816080937A0080917A00806880937A00DA
:1008B0001092C10082E00E9418021092260110924C
:1008C0002701109228011092290110922201109202
:1008D000230110922401109225010E94100281E050
:1008E0000E94990311E0C0E0D0E02FB7F894809106
:1008F000330190913401A0913501B09136012FBFA1
:1009000040912A0150912B0160912C0170912D0191
:10091000841B950BA60BB70B843F9140A105B10535
:10092000E0F02FB7F8948091330190913401A091B9
:100930003501B09136012FBF80932A0190932B018E
:10094000A0932C01B0932D01809100010E94990386
:1009500080910001812780930001209731F20E944D
:100960000000C3CFE7E3F1E01382128285E091E05B
:10097000918380838CE084838FEF85838BE08683F3
:1009800085E0878384E0808783E0818782E08287B7
:100990001386148615861686178681E00C94180235
:1009A000A1E21A2EAA1BBB1BFD010DC0AA1FBB1F73
:1009B000EE1FFF1FA217B307E407F50720F0A21BE5
:1009C000B30BE40BF50B661F771F881F991F1A9452
:1009D00069F760957095809590959B01AC01BD017C
:1009E000CF010895EE0FFF1F0590F491E02D0994BB
:1009F0005058BB27AA270E9410050C9483060E941A
:100A0000750638F00E947C0620F039F49F3F19F4F7
:100A100026F40C9472060EF4E095E7FB0C946C0639
:100A2000E92F0E94940658F3BA17620773078407E8
:100A3000950720F079F4A6F50C94B6060EF4E0952F
:100A40000B2EBA2FA02D0B01B90190010C01CA0188
:100A5000A0011124FF27591B99F0593F50F4503E33
:100A600068F11A16F040A22F232F342F4427585F25
:100A7000F3CF469537952795A795F0405395C9F73D
:100A80007EF41F16BA0B620B730B840BBAF09150F5
:100A9000A1F0FF0FBB1F661F771F881FC2F70EC094
:100AA000BA0F621F731F841F48F487957795679567
:100AB000B795F7959E3F08F0B0CF9395880F08F053
:100AC0009927EE0F9795879508950E94480608F498
:100AD00081E008950E947E050C9483060E947C06A6
:100AE00058F00E94750640F029F45F3F29F00C94FD
:100AF0006C0651110C94B7060C9472060E94940671
:100B000068F39923B1F3552391F3951B550BBB273C
:100B1000AA2762177307840738F09F5F5F4F220F81
:100B2000331F441FAA1FA9F335D00E2E3AF0E0E878
:100B300032D091505040E695001CCAF72BD0FE2FC2
:100B400029D0660F771F881FBB1F26173707480756
:100B5000AB07B0E809F0BB0B802DBF01FF2793580E
:100B60005F4F3AF09E3F510578F00C946C060C9460
:100B7000B7065F3FE4F3983ED4F386957795679583
:100B8000B795F7959F5FC9F7880F911D9695879543
:100B900097F90895E1E0660F771F881FBB1F621762
:100BA00073078407BA0720F0621B730B840BBA0B20
:100BB000EE1F88F7E09508950E949C0688F09F57E5
:100BC00098F0B92F9927B751B0F0E1F0660F771F71
:100BD000881F991F1AF0BA95C9F714C0B13091F067
:100BE0000E94B606B1E008950C94B606672F782FE0
:100BF0008827B85F39F0B93FCCF38695779567952C
:100C0000B395D9F73EF490958095709561957F4F97
:100C10008F4F9F4F0895E89409C097FB3EF490953D
:100C20008095709561957F4F8F4F9F4F9923A9F0C5
:100C3000F92F96E9BB279395F69587957795679554
:100C4000B795F111F8CFFAF4BB0F11F460FF1BC098
:100C50006F5F7F4F8F4F9F4F16C0882311F096E92B
:100C600011C0772321F09EE8872F762F05C06623D9
:100C700071F096E8862F70E060E02AF09A95660F92
:100C8000771F881FDAF7880F9695879597F908954B
:100C9000990F0008550FAA0BE0E8FEEF161617068D
:100CA000E807F907C0F012161306E407F50798F0F5
:100CB000621B730B840B950B39F40A2661F0232B0E
:100CC000242B252B21F408950A2609F4A140A6958A
:100CD0008FEF811D811D089597F99F6780E870E06F
:100CE00060E008959FEF80EC089500240A941616A2
:100CF000170618060906089500240A94121613060A
:100D0000140605060895092E0394000C11F4882397
:100D100052F0BB0F40F4BF2B11F460FF04C06F5FB3
:100D20007F4F8F4F9F4F089557FD9058440F551F89
:100D300059F05F3F71F04795880F97FB991F61F05D
:100D40009F3F79F087950895121613061406551FD4
:100D5000F2CF4695F1DF08C0161617061806991F40
:100D6000F1CF86957105610508940895E894BB2735
:100D700066277727CB0197F908950E94480608F463
:100D80008FEF08950E94D5060C9483060E94750685
:100D900038F00E947C0620F0952311F00C946C062C
:100DA0000C94720611240C94B7060E94940670F3FA
:100DB000959FC1F3950F50E0551F629FF001729F00
:100DC000BB27F00DB11D639FAA27F00DB11DAA1F0F
:100DD000649F6627B00DA11D661F829F2227B00D5C
:100DE000A11D621F739FB00DA11D621F839FA00DE7
:100DF000611D221F749F3327A00D611D231F849F37
:100E0000600D211D822F762F6A2F11249F5750408D
:100E10009AF0F1F088234AF0EE0FFF1FBB1F661F08
:100E2000771F881F91505040A9F79E3F510580F0D1
:100E30000C946C060C94B7065F3FE4F3983ED4F331
:100E4000869577956795B795F795E7959F5FC1F775
:100E5000FE2B880F911D9695879597F908950E940E
:0C0E60004806880B990B0895F894FFCF0A
:100E6C000100000000B502F20020011F016E616E4E
:100E7C0000696E66006F76660054656D703A2000EE
:020E8C002F0035
:00000001FF
